:020000020000FC
:200000000040007408408C140800683A00000000000000000000000000000000000000009A
:20000800DEFFED04DFC00015D8400215D8800315D8C00415D9000515D9400615D98007156A
:20001000D9C00815000B307ADA000915DA400A15DA800B15DAC00C15DB000D15DB400E15C4
:20001800DB800F15DBC01015D9401115EBFFFF04DBC012150009313A2880004C10000326FA
:200020002000022600100FC000000706DF401215E8BFFF17E93FFF0400101D001000021E01
:20002800EBFFFF04DBC01215D9401117DF401217DFC000172801707AD8400217D880031714
:20003000D8C00417D9000517D9400617D9800717D9C00817DA000917DA400A17DA800B17F2
:20003800DAC00C17DB000D17DB400E17DB800F17DBC01017DEC01304EF80083ADEFFF90429
:20004000DFC00615DF000515DF0005040001883A0005313AE0BFFE15E0BFFE17E0BFFB15BD
:20004800E03FFD1500800044E0BFFC15E0FFFB17E0BFFC171884703A1000142600800074CC
:2000500010876804E0FFFD17180690FA10C5883A10C000170080007410876804E13FFD1749
:20005800200890FA1105883A10800104108000171009883A183EE83A0001883A0005313A3C
:20006000E0BFFF15E0BFFF1700000706E0BFFC171085883AE0BFFC15E0BFFD1710800044CB
:20006800E0BFFD15003FE106E0BFFB15E0BFFB17103FDB1E0001883A0001883AE037883A9A
:20007000DFC00117DF000017DEC00204F800283ADEFFFB04DFC00415DF000315DF00030454
:20007800E13FFF1500BFFFC4E0BFFD15E03FFE15D0A0D41710000726D0A0D417E0FFFD17E9
:20008000E1BFFE17E17FFF171809883A103EE83A00000206003DA03A0005883AE037883A23
:20008800DFC00117DF000017DEC00204F800283A06C00074DEE7101406800074D6A692146E
:200090000080007410875D1400C0007418C7A81410C00326100000151080010410FFFD3690
:200098000010350000103D40003FFF06DEFFFE04DFC00115DF000015D839883AD020CB0517
:2000A000D0A0CB0310803FCC100B883A010000742105D60400104340D0A0CB0310C03FCC69
:2000A800008000741085E10410C5883A1080000310C03FCC008000B41084600410C0003594
:2000B000010003F42110900400106BC0D0A0CB0310800044D0A0CB05D0A0CB03108003CC49
:2000B800D0A0CB05003FE606DEFFFC04DF000315DF000304E13FFD15E17FFE15E1BFFF15AA
:2000C000E0FFFE17E0BFFD1718800C2600000806E0BFFE1710C00104E0FFFE15E0FFFD1733
:2000C80019000104E13FFD1518C0001710C00015E0FFFE17E0BFFF1718BFF51E0001883A9E
:2000D000E037883ADF000017DEC00104F800283ADEFFFE04DFC00115DF000015D839883AE9
:2000D8000180007431869F04014000742945E1040100007421069F0400102E8001800074BF
:2000E00031808C040140007429400804010000742100080400102E80018000743185E104A5
:2000E800014000742945D604010000742105D60400102E800010B1C00010D0800001883A24
:2000F000E037883ADFC00117DF000017DEC00204F800283ADEFFFD04DFC00215DF000115E3
:2000F800DF0001040009883A001072000001883A001075800010C4800100007421032A04D4
:20010000001122C0D0A0CC17D0E0CD17D120CE17200D883A180B883A1009883A001026C08A
:20010800E0BFFF15010000440010AE00E13FFF1700112400DEFFF204DFC00A15DF00091528
:20011000DF000904E13FFF15E1400215E1800315E1C00415E0800204E0BFFE15E0BFFF1777
:20011800E0BFF71500006F06E0BFF807108009601000041EE0BFF8071009883A00106600EF
:2001200000006806E0BFF71710C00044E0FFF71510800003E0BFF805E0BFF8071000692639
:20012800E0BFF807108009581000041EE0BFF8071009883A0010660000005A06E0BFF80709
:20013000108018D81000081EE0BFFE1710C00104E0FFFE1510800017E0BFFD15E13FFD17F2
:200138000010660000004F06E0BFF80710801E181000341EE0BFFE1710C00104E0FFFE159B
:2001400010800017E0BFFB15E0BFFB171000031E01000C040010660000004206008007040D
:20014800E0BFF91500000306E0BFF91710BFFF04E0BFF91500C003C4E0BFF9171884983A0F
:200150001007883AE0BFFB171884703A103FF6260000190600C003C4E0BFF9171884983A91
:200158001007883AE0BFFB171886703AE0BFF9171884D83AE0BFFC15E0BFFC17108002A8BC
:200160001000041EE0BFFC1710800C04E0BFF80500000306E0BFFC17108015C4E0BFF8059F
:20016800E0BFF8071009883A00106600E0BFF91710BFFF04E0BFF915E0BFF917103FE50E69
:2001700000001806E0BFF80710801CD81000151EE0BFFE1710C00104E0FFFE1510800017CA
:20017800E0BFFA1500000906E0BFFA1710C00044E0FFFA151080000310803FCC1080201CFE
:2001800010BFE0041009883A00106600E0BFFA171080000310803FCC1080201C10BFE004FE
:20018800103FF11EE0BFF71710C00044E0FFF71510800003E0BFF805E0BFF807103F8A1E89
:20019000000001060001883A0001883AE037883ADFC00117DF000017DEC00504F800283A3B
:20019800DEFFFC04DFC00315DF000215DF000204E13FFF15E0BFFF17E0BFFE05000F883A7C
:2001A00001800044E17FFE04010000742106920400107C4010BFFFD81000021E00BFFFC4C2
:2001A80000000106E0BFFF17E037883ADFC00117DF000017DEC00204F800283ADEFFFD0419
:2001B000DFC00215DF000115DF000104E13FFF15E13FFF17001094C0E037883ADFC0011742
:2001B800DF000017DEC00204F800283ADEFFFD04DFC00215DF000115DF000104E13FFF1592
:2001C000D1600404E13FFF170010BA40E037883ADFC00117DF000017DEC00204F800283A22
:2001C800DEFFFD04DFC00215DF000115DF000104E13FFF15001116C0008000441001703A10
:2001D0000001883AE037883ADFC00117DF000017DEC00204F800283ADEFFFE04DFC0011534
:2001D800DF000015D839883A01C0FA0401800144000B883A010000B42104280400108D004B
:2001E000008000B410842004D0A0CF150080BEF410BC2004D0A0D0150001883A0001883AC2
:2001E800010000742105E50400106EC00001883AE037883ADFC00117DF000017DEC0020448
:2001F000F800283ADEFFF904DF000615DF000604E13FFC15E17FFD15E1BFFE15E1FFFF158E
:2001F800E0BFFC1710800017E0BFFA15E0BFFE17E0FFFD171885883AE0BFFB1500000E0617
:20020000E0BFFA17108001041080003710BFFFEC10000926E0FFFA17E0BFFD1711000044E1
:20020800E13FFD151080000310803FCC1080201C10BFE00418800035E0FFFD17E0BFFB1786
:2002100018BFEF36E0BFFE17E037883ADF000017DEC00104F800283ADEFFFA04DFC00515BE
:20021800DF000415DF000404E13FFF150007883AE0BFFF1710C00035E0BFFF1710800104E6
:20022000108000370005303AE0BFFD15E0FFFD1700BFFF841884703A1001703AE0BFFD17EE
:20022800E0BFFC1500110640E0BFFC17E0BFFE15E0BFFE171001703A0001883AE037883A40
:20023000DFC00117DF000017DEC00204F800283ADEFFF804DFC00715DF000615DF0006048C
:20023800E13FFC15E17FFD15E1BFFE15E1FFFF15E0BFFF17E0BFFB15D0A0D2171000021E6F
:20024000E0BFFB17D0A0D215E0BFFC171080010400C001C410C00035D8000015E1FFFC17E5
:200248000180007431821604E17FFE17E13FFD170010D2800001883AE037883ADFC0011776
:20025000DF000017DEC00204F800283ADEFFFA04DFC00515DF000415DF000404E13FFF15F3
:2002580000800244E0BFFD15014003F429509004E13FFD1700116FC0100B883A0100BEF4C6
:20026000213C200400116400100B883A01200034213FFFC400116400100B883AE13FFF17AB
:2002680000116400E0BFFE15E0BFFE1710002A26E03FFC150000170600A0003410BFFFC488
:2002700010BFFFC4103FFE1E014003F429509004E13FFD1700116FC0100B883A0100BEF428
:20027800213C200400116400100B883A01200034213FFFC4001164001007883AE0BFFF1718
:2002800010C5C83AE0BFFF15E0BFFC1710800044E0BFFC15E0FFFC17E0BFFE1718BFE61625
:20028800014003F429509004E13FFD1700116FC0100B883A0100BEF4213C20040011640017
:20029000E17FFF171009883A00116FC010BFFFC4103FFE1E00000D06014003F42950900468
:20029800E13FFD1700116FC0100B883A0100BEF4213C200400116400E17FFF171009883AFB
:2002A00000116FC010BFFFC400BFFE160005883AE037883ADFC00117DF000017DEC00204A8
:2002A800F800283ADEFFFE04DFC00115DF000015D839883AD0A0071710000326D0A007172C
:2002B000103EE83A00000106D0A0D504E037883ADFC00117DF000017DEC00204F800283AEA
:2002B800DEFFFD04DFC00215DF000115DF000104E13FFF150010AA401007883A0080160418
:2002C0001880001500BFFFC4E037883ADFC00117DF000017DEC00204F800283ADEFFFF048B
:2002C800DF000015D839883A0001883AE037883ADF000017DEC00104F800283ADEFFFC04E3
:2002D000DF000315DF000304E13FFD15E17FFE15E1BFFF15E0BFFF17E037883ADF00001754
:2002D800DEC00104F800283ADEFFFE04DFC00115DF000015D839883AD0A0071710000326E7
:2002E000D0A00717103EE83A00000106D0A0D504E037883ADFC00117DF000017DEC0020486
:2002E800F800283ADEFFFA04DFC00515DF000415DF000404E13FFE15E17FFF15E0BFFE17CE
:2002F00010000326E0BFFE17108002171000061E0010B6801007883A00800584188000154F
:2002F80000BFFA8400001306E0BFFE17E0FFFF17E0FFFC15E0BFFD15E0BFFD17E0FFFC17A1
:2003000010C00115E0BFFC1710C00017E0BFFD1710C00015E0BFFC1710800017E0FFFD177A
:2003080010C00115E0BFFC17E0FFFD1710C000150005883AE037883ADFC00117DF00001718
:20031000DEC00204F800283ADEFFFD04DFC00215DF000115DF000104008000741085D50400
:20031800E0BFFF1500000606E0BFFF1710800017103EE83AE0BFFF1710BFFF04E0BFFF1500
:20032000E0FFFF17008000741085D60418BFF62E0001883AE037883ADFC00117DF00001721
:20032800DEC00204F800283ADEFFFD04DFC00215DF000115DF000104008000741085D504E8
:20033000E0BFFF1500000606E0BFFF1710800017103EE83AE0BFFF1710BFFF04E0BFFF15E8
:20033800E0FFFF17008000741085D60418BFF62E0001883AE037883ADFC00117DF00001709
:20034000DEC00204F800283ADEFFFF04DF000015D839883A0001883AE037883ADF00001766
:20034800DEC00104F800283ADEFFF904DFC00615DF000515DF000504E13FFC15E17FFD1580
:20035000E1BFFE15E1FFFF15E0800217D8800015E1FFFF17E1BFFE17E17FFD17E13FFC17AE
:200358000010ED80E037883ADFC00117DF000017DEC00204F800283ADEFFF904DF000615B0
:20036000DF000604E13FFE15E17FFF15E0BFFF17E0BFFA150005303AE0BFFB15E0FFFB177B
:2003680000BFFF841884703A1001703AE0BFFB17E0BFFC1500C00044E0BFFA171884983AAF
:200370001007883AD0A0D1171884B03AD0A0D115D0A0D117100170FAE0BFFC17E0BFFD152A
:20037800E0BFFD171001703A0005883A0001883AE037883ADF000017DEC00104F800283AA1
:20038000DEFFF904DF000615DF000604E13FFE15E17FFF15E0BFFF17E0BFFA150005303A27
:20038800E0BFFB15E0FFFB1700BFFF841884703A1001703AE0BFFB17E0BFFC1500C000440D
:20039000E0BFFA171884983A0084303A1007883AD0A0D1171884703AD0A0D115D0A0D1171C
:20039800100170FAE0BFFC17E0BFFD15E0BFFD171001703A0005883A0001883AE037883A96
:2003A000DF000017DEC00104F800283ADEFFFC04DF000315DF000304E13FFE15E17FFF15E9
:2003A800000530FAE0BFFD1500C00044E0BFFF171884983A1007883AE0BFFD171884703A5C
:2003B0001004C03A10803FCCE037883ADF000017DEC00104F800283ADEFFF504DFC00A1524
:2003B800DF000915DF000904E13FFC15E17FFD15E1BFFE15E1FFFF1500BFFA84E0BFF7150A
:2003C000E0BFFD17E0BFF815E0BFF817108008081000271E0005303AE0BFFB15E0FFFB170C
:2003C80000BFFF841884703A1001703AE0BFFB17E0BFFA150080007410876804E0FFF8178E
:2003D000180690FA10C5883AE0FFFE1710C000150080007410876804E0FFF817180690FA68
:2003D80010C5883A10800104E0FFFF1710C00015E0BFFE1710000526E0BFF817100B883A85
:2003E000E13FFC170010D78000000406E0BFF817100B883AE13FFC170010E000E0BFF71500
:2003E800E0BFFA17E0BFF915E0BFF9171001703AE0BFF717E037883ADFC00117DF000017FB
:2003F000DEC00204F800283ADEFFFA04DF000515DF000504E13FFF150005303AE0BFFC15E0
:2003F800E0FFFC1700BFFF841884703A1001703AE0BFFC17E0BFFB15E0BFFF17E0BFFD15E9
:20040000E0BFFD1710800017E0FFFD1718C0011710C00115E0BFFD1710800117E0FFFD176B
:2004080018C0001710C00015E0BFFD17E0FFFD1710C00115E0BFFD17E0FFFD1710C00015E9
:20041000E0BFFB17E0BFFE15E0BFFE171001703A0001883AE037883ADF000017DEC00104C5
:20041800F800283ADEFFFB04DFC00415DF000315DF000304D0A00917E0BFFD15D0A0D3175E
:2004200010800044D0A0D31500002E06E0BFFD1710800017E0BFFE15E0BFFD171080040306
:2004280010803FCC10000426D0A0D3171000021EE0BFFD1710000405E0BFFD17108002172D
:20043000D0E0D31718801D36E0BFFD171080040310803FCC1000191EE0BFFD17108003179E
:20043800E0FFFD1718C005171809883A103EE83AE0BFFF15E0BFFF171000031EE13FFD179D
:200440000010FC8000000D06E0BFFD1710C00217E0BFFF171887883AE0BFFD1710C00215B1
:20044800E0BFFD1710C00217D0A0D3171880032EE0BFFD1700C0004410C00405E0BFFE1791
:20045000E0BFFD15E0FFFD17D0A0090418BFCF1E0001883A0001883AE037883ADFC0011791
:20045800DF000017DEC00204F800283ADEFFFF04DF000015D839883A000170FA0001883ABB
:20046000E037883ADF000017DEC00104F800283ADEFFFE04DF000115DF000104E13FFF15C4
:20046800E0BFFF1710BFFE8410C0042818001A1E100690BA00800074108472041885883A65
:20047000108000171000683A00011208000112080001121800011218000112180001120841
:2004780000011210000112180001120800011208000112180001120800011210000112184C
:20048000000112180001120800800044000003060005883A000001060005883AE037883ADB
:20048800DF000017DEC00104F800283A200B883A000F883A000D883A0009883A00112601D1
:20049000DEFFFE04000B883ADC000015DFC001152021883A00113B808009883A001172401D
:200498000080007410869D0410C00017DEFFF904DC0000151C000C17DD400515DD000415FB
:2004A000DCC00315DC800215DC400115DFC00615202B883A2823883A3027883A3825883AD7
:2004A8001029883A8000021E1C000D041C000C158080011700C007C41880110E0080003421
:2004B000108000041000021E00BFFFC40000310601002304000000001021883A103FFA2625
:2004B80010000115A080001710C00C1780C0001514000C1580002215A8001D26000006069C
:2004C000A8001B26808022171000091E0080003410800004103FEC260100420400000000D3
:2004C800103FE92610004015100041158080221581400117010000442947883A18C7883AC3
:2004D00010C7883A1CC000152148983A11404017290AB03A114040151C80201500C00084C7
:2004D800A8C0031E10C041171908B03A110041158080011710C00044108000841085883A4A
:2004E0001085883A80C0011580A1883A844000150005883ADFC00617DD400517DD000417DF
:2004E800DCC00317DC800217DC400117DC000017DEC00704F800283ADEFFF504DD000515D2
:2004F00005000074DC800315DFC00A15DF000915DDC00815DD800715DD400615DCC0041524
:2004F800DC400215DC000115D90000152825883AA5069D04A44000178CC00C178C400C0430
:20050000980045269C0001170090003410BFFFC49D40221785BFFFC480A1883A8421883A67
:200508008421883AAC2F883A840002049C21883AB000271690000726A800041EB5BFFFC41B
:20051000BDFFFF04843FFF04003FF906B9002017913FFA1E9900011782000017213FFFC4C3
:20051800B100021E9D8001150000010680000015403FF2269F000117A8000526008000443E
:200520001592983AA9404017494A703A2800021E403EE83A00000906A90041174908703AD2
:200528002000041EB9400017D9000017403EE83A00000206B9000017403EE83A99000117A8
:20053000E13FCC1E89000017993FDC26003FC906008000341080000410000F26994001179B
:20053800990000172800091E2000082689000015A8000226A809883A000000009809883A12
:20054000000000008CC00017003FBD069823883A2027883A003FBA06DFC00A17DF000917F2
:20054800DDC00817DD800717DD400617DD000517DCC00417DC800317DC400217DC000117D3
:20055000DEC00B04F800283A20001B16000F883A28001616200D883A29001A2E0080080422
:2005580000C000440000010610000D26294B883A10BFFFC418C7883A293FFB360005883A6C
:20056000180007260005883A31400236314DC83A10C4B03A1806D07A280AD07A183FFA1E35
:20056800380001260085C83AF800283A014BC83A39C0005C003FE7060109C83A01C0004453
:20057000003FE30600C00044003FEE0620001716000F883A2005883A280012162900162E4A
:200578000180080400C000440000010630000A26294B883A31BFFFC418C7883A293FFB3648
:20058000180005261806D07A114001361145C83A280AD07A183FFB1E380001260085C83AFE
:20058800F800283A014BC83A003FEC060109C83A01C00044003FE70600C00044003FF10603
:20059000200D883A2900152E280014160080080400C000440000020610000E26280005167F
:20059800294B883A10BFFFC418C7883A293FFA36180008260005883A31400236314DC83A0C
:2005A00010C4B03A1806D07A280AD07A183FFA1EF800283A0005883AF800283A00C00044AB
:2005A800003FF4062005883A2900122E280011160180080400C000440000020630000C2660
:2005B00028000516294B883A31BFFFC418C7883A293FFA36180006261806D07A1140013692
:2005B8001145C83A280AD07A183FFB1EF800283AF800283A00C00044003FF7060005883A24
:2005C0002000072620C0004C2008D07A180001261145883A294B883A203FFA1EF800283AD2
:2005C800F800283ADEFFFD04DF000215DF000204E13FFF150001883AE0BFFF17E0BFFE15A2
:2005D000E0BFFE1710000226002AF07000000106002AF0B0003FFF066E6F430A65676174B5
:2005D8007461206D3A6C6175007825207665642F6364612F0000315F7665642F6C756E2F27
:2005E0000000006C000000000000000000000000000000000000000000000000000000008F
:2005E8000000000000000000000000000000000000000000000000000000000000000000F3
:2005F0000000000000000000000000000000000000000000000000000000000000000000EB
:2005F8000000000000000000000000000000000000000000000000000000000000000000E3
:200600000000000000000000000000000000000000000000000000000000000000000000DA
:200608000000000000000000000000000000000000000000000000000000000000000000D2
:200610000000000000000000000000000000000000000000000000000000000000000000CA
:200618000000000000000000000000000000000000000000000000000000000000000000C2
:200620000000000000000000000000000000000000000000000000000000000000000000BA
:200628000000000000000000000000000000000000000000000000000000000000000000B2
:200630000000000000000000000000000000000000000000000000000000000000000000AA
:200638000000000000000000000000000000000000000000000000000000000000000000A2
:2006400000000000000000000000000000000000000000000000000000000000000000009A
:20064800000000000000000000000000000000000000000000000000000000000000000092
:2006500000000000000000000000000000000000000000000000000000000000000000008A
:20065800000000000000000000000000000000000000000000000000000000000000000082
:2006600000000000000000000000000000000000000000000000000000000000000000007A
:20066800000000000000000000000000000000000000000000000000000000000000000072
:2006700000000000000000000000000000000000000000000000000000000000000000006A
:20067800000000000000000000000000000000000000000000000000000000000000000062
:2006800000000000000000000000000000000000000000000000000000000000000000005A
:20068800000000000000000000000000000000000000000000000000000000000000000052
:2006900000000000000000000000000000000000000000000000000000000000000000004A
:20069800000000000000000000000000000000000000000000000000000000008692CF81DA
:2006A0008FA0A4CCE0888C80B8B0C2B100000000000000000001176C0000000000000000C8
:2006A80000000000000000000000000000000000000000000002100000011A5800011A583A
:2006B0000001177800000000000000000000000000010B3C00000000000000000000000052
:2006B800000117C00000000000000000000117C00000000000000000000117C0000000009A
:2006C00000000000000000000000000000000000000000000000000000000000000000001A
:2006C800000000000000000000000000000000000000000000000000000000000000000012
:2006D00000000000000000000000000000000000000000000000000000000000000000000A
:2006D800000000000000000000000000000000000000000000000000000000000000000002
:2006E0000000000000000000000000000000000000000000000000000000000000000000FA
:2006E8000000000000000000000000000000000000000000000000000000000000000000F2
:2006F0000000000000000000000000000000000000000000000000000000000000000000EA
:2006F8000000000000000000000000000000000000000000000000000000000000000000E2
:200700000000000000000000000000000000000000000000000000000000000000000000D9
:200708000000000000000000000000000000000000000000000000000000000000000000D1
:200710000000000000000000000000000000000000000000000000000000000000000000C9
:200718000000000000011A2800011A3000011A3800000000000000000000000000000000E0
:200720000000000000000000000000000000000000000000000000000000000000000000B9
:200728000000000000000000000000000000000000000000000000000000000000000000B1
:200730000000000000000000000000000000000000000000000000000000000000000000A9
:200738000000000000000000000000000000000000000000000000000000000000000000A1
:20074000000000000000000000000000000000000000000000000000000000000000000099
:2007480000000004000000000001000A000000000002000A00000000000000000000000076
:20075000000211D8000210C000011A5000011A50000117C0000117C0FFFFFFFF000000004A
:20075800FFFFFFFF00011A6C00011A6C000119680001196800000000000000000000000073
:20076000000000000000000000000000000000000000000000000000000000000000000079
:20076800000000000000000000000000000000000000000000000000000000000000000071
:20077000000000000000000000000000000000000000000000000000000000000000000069
:20077800000000000000000000000000000000000000000000000000000000000000000061
:00000001FF
