:020000020000FC
:200000000040007408408C140800683A00000000000000000000000000000000000000009A
:20000800DEFFED04DFC00015D8400215D8800315D8C00415D9000515D9400615D98007156A
:20001000D9C00815000B307ADA000915DA400A15DA800B15DAC00C15DB000D15DB400E15C4
:20001800DB800F15DBC01015D9401115EBFFFF04DBC012150009313A2880004C10000326FA
:200020002000022600100FC000000706DF401215E8BFFF17E93FFF0400101D001000021E01
:20002800EBFFFF04DBC01215D9401117DF401217DFC000172801707AD8400217D880031714
:20003000D8C00417D9000517D9400617D9800717D9C00817DA000917DA400A17DA800B17F2
:20003800DAC00C17DB000D17DB400E17DB800F17DBC01017DEC01304EF80083ADEFFF90429
:20004000DFC00615DF000515DF0005040001883A0005313AE0BFFE15E0BFFE17E0BFFB15BD
:20004800E03FFD1500800044E0BFFC15E0FFFB17E0BFFC171884703A1000142600800074CC
:20005000108A2504E0FFFD17180690FA10C5883A10C0001700800074108A2504E13FFD17C9
:20005800200890FA1105883A10800104108000171009883A183EE83A0001883A0005313A3C
:20006000E0BFFF15E0BFFF1700000706E0BFFC171085883AE0BFFC15E0BFFD1710800044CB
:20006800E0BFFD15003FE106E0BFFB15E0BFFB17103FDB1E0001883A0001883AE037883A9A
:20007000DFC00117DF000017DEC00204F800283ADEFFFB04DFC00415DF000315DF00030454
:20007800E13FFF1500BFFFC4E0BFFD15E03FFE15D0A0D01710000726D0A0D017E0FFFD17F1
:20008000E1BFFE17E17FFF171809883A103EE83A00000206003DA03A0005883AE037883A23
:20008800DFC00117DF000017DEC00204F800283A06C00074DEE7101406800074D6A95414A9
:2000900000800074108A1B1400C0007418CA651410C00326100000151080010410FFFD360F
:200098000010D3C00010DC00003FFF06DEFFFC04DFC00315DF000215DF0002040100007491
:2000A0002108950400104040010000B42121A80400110A800100007421089A040011410022
:2000A800000B883A1009883A001144C0E0BFFE15008000B41084010410800037E0BFFF1582
:2000B000010000B42121A80400110A800100007421089A0400114100100B883A0100007412
:2000B80021089D040010E200E17FFE170100007421089E0400103380003FE606DEFFFD04EB
:2000C000DFC00015D9800115D9C0021520C002170180007431827A0419800115280D883A88
:2000C80021400217D9C0010400104A00DFC00017DEC00304F800283ADEFFFC04DFC0001560
:2000D000D9400115D9800215D9C003150080007410895504108000170140007429427A0495
:2000D80010C00217D980010419400115200B883A1100021700109CC0DFC00017DEC0040473
:2000E000F800283ADEFFFD04DC0000152021883A2809883ADFC00215DC4001152823883AEC
:2000E80000104180814002170100007421027A0429000115100F883A880D883A8009883A75
:2000F00000109E8000FFFFC410C00926814002170180007401C00044288001173188A00410
:2000F8008009883A103EE83A10BFFFE00085C83ADFC00217DC400117DC000017DEC0030474
:20010000F800283A0080007410895504200B883A11000017001038412005883A10C0000743
:200108001800022610800044003FFC061105C83AF800283ADEFFFB04DC800315DC4002158D
:20011000DC000115DFC004152025883A2823883AD98000053821883A04000A0E888001175C
:2001180001C00044D80D883A880B883A9009883A103EE83A843FFFC4103FF72600BFFFC487
:20012000000001060005883ADFC00417DC800317DC400217DC000117DEC00504F800283A97
:20012800DEFFE504D8C00804DDC01815DD801715DD401615DD001515DCC01415DC80131562
:20013000DC401215DC001115DFC01A15DF0019152029883A2823883A382D883AD9800F15D3
:200138000021883AD8000E15D8000A15002B883A0027883A0025883AD8000C15D8000B1524
:20014000002F883AD8C00915D8C00F171900000320803FCC1080201C10BFE00410011E269F
:2001480000C00044B8C014261DC00216B80006260001150601400084B9401D26014000C4E6
:20015000B9402B2600011006014009441140FC2688800117D900000501C00044D80D883A83
:20015800880B883AA009883A103EE83A1000D81E840000440001040601400C041140FA26BC
:200160000140094411400A1ED880000588800117B80F883AD80D883A880B883AA009883A0B
:20016800103EE83A1000CA1E840000440000F50625FFF404BDC03FCC00C002441DC0093686
:2001700000BFFFC490800426014002849009883A0010CAC0000001060005883AB8A5883A0A
:200178000000E20601400B841140E42605C00084213FF40427003FCC00C002441F0009361D
:2001800000BFFFC498800426014002849809883A0010CAC0000001060005883AE0A7883AC0
:200188000000D90600C01B0410C0D226013FFFC499000226D8000B150000010604C0004406
:2001900001001A441100162620800916010018C411008826010019041100112601001604C7
:200198001100C81E00C00044D8C00E150000150601001CC4110098262080041601001BC42C
:2001A0001100C01E0540020400000F0601001D4411000D2601001E0411000A260000B90627
:2001A800D8C00A17B700010418000726DF000D15B5C00017B800080E05EFC83A02400044A6
:2001B0000000060605400404B0C00104D8C00D15B5C00017D8000A150013883AD839883A7C
:2001B800B8001726A80B883AB809883ADA4010150010BF00A80B883A1009883A102D883ADD
:2001C0000010CAC0B885C83A00C00244DA4010171880021610800C0400000506D8C00E17E7
:2001C8001800022610800DC400000106108015C4E0800005B02F883AE7000044003FE806A8
:2001D000E6EFC83A9DC5C83A0080090EE085883A01400C04D8C00917E009883AE0C0032E91
:2001D800E700004421400005E0BFFA1EE6EFC83AD8C00B174DD1883A922DC83A1800162639
:2001E00048000A2600800B44D88008058880011701C00044D9800804880B883AA009883A09
:2001E800103EE83A10004A1E840000440580070EB00F883A01800C04880B883AA009883ADB
:2001F000001043401000421E85A1883AE02D883ABF2FC83A000020060580090EB00F883A02
:2001F80001800804880B883AA009883ADA40101500104340DA4010171000351E85A1883A3C
:20020000483FF22600800B44D88008058880011701C00044D9800804880B883AA009883AC1
:20020800103EE83A10002A1E84000044003FE706B5BFFFC4B080000301C00044D980080446
:20021000D880080588800117880B883AA009883A103EE83A10001E1E8585C83AB5C9883A81
:20021800E085883A013FF2161021883ADD800D1700004406008000441480080E95FFFFC4D4
:20022000B80F883A01800804880B883AA009883A0010434010000E1E85E1883AB0800017AA
:2002280001C00044D80D883AD880000588800117880B883AA009883AB5C00104103EE83AE3
:200230001000031E84000044B82D883A00002D0600BFFFC400003106B5C00017B7000104DA
:20023800B809883A001041809091C83A102D883A0200090E400F883A01800804880B883A24
:20024000A009883ADA00101500104340DA001017103FEF1E8221883A88800117B00F883A3E
:20024800B80D883A880B883AA009883A103EE83A103FE71E85A1883AE02D883A00001106BD
:2002500000C0004404FFFFC4D8000E15D8C00A15054002849825883AD8000C15D8000B15D7
:20025800182F883A00000806DDC00B1505C000840000050600C00044D8C00C1505C000C418
:2002600000000106002F883AD8C00F1718C00044D8C00F15003EDC068005883ADFC01A17B9
:20026800DF001917DDC01817DD801717DD401617DD001517DCC01417DC801317DC4012172B
:20027000DC001117DEC01B04F800283A0080007410895504300F883A280D883A200B883A88
:200278001100001700104A012880000B1080020C100021262880008FDEFFFA04DC00001538
:20028000DFC00515DD000415DCC00315DC800215DC4001152821883A100012162027883A0A
:200288003025883A3823883A0501000404400B0E880F883AA440010E01C100048140008F59
:20029000900D883A9809883A0010AA000080050E88A3C83A90A5883A003FF4060005883A1B
:20029800000007068080000B108010148080000D00BFFFC40000020600BFFFC4F800283A07
:2002A000DFC00517DD000417DCC00317DC800217DC400117DC000017DEC00604F800283A37
:2002A800DEFFFD04DC00001504000074DC400115840A1B042023883A2809883A300B883A1B
:2002B000380D883ADFC00215800000150011114000FFFFC410C0031E80C000171800012631
:2002B80088C00015DFC00217DC400117DC000017DEC00304F800283A20001B16000F883AC9
:2002C00028001616200D883A29001A2E0080080400C000440000010610000D26294B883A5A
:2002C80010BFFFC418C7883A293FFB360005883A180007260005883A31400236314DC83A4E
:2002D00010C4B03A1806D07A280AD07A183FFA1E380001260085C83AF800283A014BC83A6F
:2002D80039C0005C003FE7060109C83A01C00044003FE30600C00044003FEE0620001716C8
:2002E000000F883A2005883A280012162900162E0180080400C000440000010630000A2691
:2002E800294B883A31BFFFC418C7883A293FFB36180005261806D07A114001361145C83A48
:2002F000280AD07A183FFB1E380001260085C83AF800283A014BC83A003FEC060109C83A37
:2002F80001C00044003FE70600C00044003FF106200D883A2900152E280014160080080442
:2003000000C000440000020610000E2628000516294B883A10BFFFC418C7883A293FFA3649
:20030800180008260005883A31400236314DC83A10C4B03A1806D07A280AD07A183FFA1E8E
:20031000F800283A0005883AF800283A00C00044003FF4062005883A2900122E2800111676
:200318000180080400C000440000020630000C2628000516294B883A31BFFFC418C7883AFD
:20032000293FFA36180006261806D07A114001361145C83A280AD07A183FFB1EF800283A53
:20032800F800283A00C00044003FF7060005883A2000072620C0004C2008D07A180001262A
:200330001145883A294B883A203FFA1EF800283AF800283ADEFFFC04DF000315DF0003047A
:20033800E13FFD15E17FFE15E1BFFF15E0FFFE17E0BFFD1718800C2600000806E0BFFE1719
:2003400010C00104E0FFFE15E0FFFD1719000104E13FFD1518C0001710C00015E0FFFE17CB
:20034800E0BFFF1718BFF51E0001883AE037883ADF000017DEC00104F800283ADEFFFE0488
:20035000DFC00115DF000015D839883A0180007431896104014000742948A70401000074B7
:20035800210961040010CD400180007431808C0401400074294008040100007421000804D7
:200360000010CD40018000743188A704014000742948950401000074210895040010CD40F4
:200368000011734000119B000001883AE037883ADFC00117DF000017DEC00204F800283ABE
:20037000DEFFFD04DFC00215DF000115DF0001040009883A00111E400001883A001121C011
:200378000011860001000074210630040011ED40D0A0C817D0E0C917D120CA17200D883A20
:20038000180B883A1009883A001026C0E0BFFF150100004400116F80E13FFF170011EE80FA
:20038800DEFFF204DFC00A15DF000915DF000904E13FFF15E1400215E1800315E1C004153C
:20039000E0800204E0BFFE15E0BFFF17E0BFF71500006F06E0BFF807108009601000041E97
:20039800E0BFF8071009883A001104C000006806E0BFF71710C00044E0FFF715108000034A
:2003A000E0BFF805E0BFF80710006926E0BFF807108009581000041EE0BFF8071009883A2A
:2003A800001104C000005A06E0BFF807108018D81000081EE0BFFE1710C00104E0FFFE1531
:2003B00010800017E0BFFD15E13FFD17001104C000004F06E0BFF80710801E181000341EB1
:2003B800E0BFFE1710C00104E0FFFE1510800017E0BFFB15E0BFFB171000031E01000C0461
:2003C000001104C00000420600800704E0BFF91500000306E0BFF91710BFFF04E0BFF91591
:2003C80000C003C4E0BFF9171884983A1007883AE0BFFB171884703A103FF6260000190617
:2003D00000C003C4E0BFF9171884983A1007883AE0BFFB171886703AE0BFF9171884D83A3A
:2003D800E0BFFC15E0BFFC17108002A81000041EE0BFFC1710800C04E0BFF8050000030640
:2003E000E0BFFC17108015C4E0BFF805E0BFF8071009883A001104C0E0BFF91710BFFF0477
:2003E800E0BFF915E0BFF917103FE50E00001806E0BFF80710801CD81000151EE0BFFE1720
:2003F00010C00104E0FFFE1510800017E0BFFA1500000906E0BFFA1710C00044E0FFFA1510
:2003F8001080000310803FCC1080201C10BFE0041009883A001104C0E0BFFA171080000345
:2004000010803FCC1080201C10BFE004103FF11EE0BFF71710C00044E0FFF7151080000325
:20040800E0BFF805E0BFF807103F8A1E000001060001883A0001883AE037883ADFC0011786
:20041000DF000017DEC00504F800283ADEFFFC04DFC00315DF000215DF000204E13FFF1532
:20041800E0BFFF17E0BFFE05000F883A01800044E17FFE04010000742109560400112880C3
:2004200010BFFFD81000021E00BFFFC400000106E0BFFF17E037883ADFC00117DF00001722
:20042800DEC00204F800283ADEFFFD04DFC00215DF000115DF000104E13FFF15E13FFF17DF
:2004300000115640E037883ADFC00117DF000017DEC00204F800283ADEFFFE04DFC00115ED
:20043800DF000015D839883AD0A0091710000326D0A00917103EE83A00000106D0A0C704D2
:20044000E037883ADFC00117DF000017DEC00204F800283ADEFFFB04DFC00415DF0003158D
:20044800DF000304E13FFD15E17FFE15E1BFFF15E0BFFD1710C000601800031E108000A009
:200450001000091E00001006E0BFFF17000F883A100D883AE17FFE1701000074210956046C
:200458000011288000000D06E0BFFF17000F883A100D883AE17FFE170100007421095604E5
:20046000001128800000050600110D801007883A008014441880001500BFFFC4E037883A61
:20046800DFC00117DF000017DEC00204F800283ADEFFFD04DFC00215DF000115DF0001045C
:20047000E13FFF15D1600604E13FFF1700117BC0E037883ADFC00117DF000017DEC0020451
:20047800F800283ADEFFFD04DFC00215DF000115DF000104E13FFF150011E1400080004473
:200480001001703A0001883AE037883ADFC00117DF000017DEC00204F800283ADEFFFE047B
:20048800DFC00115DF000015D839883A01C0FA0401800144000B883A010000B42104280480
:2004900000113940008000B410842004D0A0CB150080BEF410BC2004D0A0CC150001883A50
:200498000001883A010000742108DF0400111B000001883AE037883ADFC00117DF0000178B
:2004A000DEC00204F800283ADEFFF904DF000615DF000604E13FFC15E17FFD15E1BFFE152B
:2004A800E1FFFF15E0BFFC1710800017E0BFFA15E0BFFE17E0FFFD171885883AE0BFFB1584
:2004B00000000E06E0BFFA17108001041080003710BFFFEC10000926E0FFFA17E0BFFD1770
:2004B80011000044E13FFD151080000310803FCC1080201C10BFE00418800035E0FFFD1730
:2004C000E0BFFB1718BFEF36E0BFFE17E037883ADF000017DEC00104F800283ADEFFFA0414
:2004C800DFC00515DF000415DF000404E13FFF150007883AE0BFFF1710C00035E0BFFF1710
:2004D00010800104108000370005303AE0BFFD15E0FFFD1700BFFF841884703A1001703A5A
:2004D800E0BFFD17E0BFFC150011D0C0E0BFFC17E0BFFE15E0BFFE171001703A0001883A6A
:2004E000E037883ADFC00117DF000017DEC00204F800283ADEFFF804DFC00715DF000615EA
:2004E800DF000604E13FFC15E17FFD15E1BFFE15E1FFFF15E0BFFF17E0BFFB15D0A0CE1708
:2004F0001000021EE0BFFB17D0A0CE15E0BFFC171080010400C001C410C00035D8000015FA
:2004F800E1FFFC17018000743184C704E17FFE17E13FFD1700119D000001883AE037883A89
:20050000DFC00117DF000017DEC00204F800283ADEFFFC04DFC00315DF000215DF000204C1
:20050800E13FFF15D1600604E13FFF1700119200E0BFFE15E0BFFE17E037883ADFC0011795
:20051000DF000017DEC00204F800283ADEFFFC04DF000315DF000304E13FFE15E17FFF1576
:20051800E0BFFF17108001CCE0BFFD15E0BFFD17108002281000361EE0BFFD17100690BA1C
:2005200000800074108525041885883A108000171000683A000114B4000114C4000114D8C2
:20052800000114EC0001150000011514000115280001153CE0BFFE1710800A1710800037B6
:2005300000002406E0BFFE1710800A17108001041080003700001F06E0BFFE1710800A1736
:20053800108002041080003700001A06E0BFFE1710800A1710800304108000370000150648
:20054000E0BFFE1710800A17108004041080003700001006E0BFFE1710800A1710800504C3
:200548001080003700000B06E0BFFE1710800A17108006041080003700000606E0BFFE1735
:2005500010800A171080070410800037000001060005883AE037883ADF000017DEC0010438
:20055800F800283ADEFFFA04DFC00515DF000415DF000404E13FFF1500800244E0BFFD150B
:20056000014003F429509004E13FFD170010CAC0100B883A0100BEF4213C20040010BF0088
:20056800100B883A01200034213FFFC40010BF00100B883AE13FFF170010BF00E0BFFE15BB
:20057000E0BFFE1710002A26E03FFC150000170600A0003410BFFFC410BFFFC4103FFE1EA7
:20057800014003F429509004E13FFD170010CAC0100B883A0100BEF4213C20040010BF0070
:20058000100B883A01200034213FFFC40010BF001007883AE0BFFF1710C5C83AE0BFFF151F
:20058800E0BFFC1710800044E0BFFC15E0FFFC17E0BFFE1718BFE616014003F4295090045F
:20059000E13FFD170010CAC0100B883A0100BEF4213C20040010BF00E17FFF171009883A4C
:200598000010CAC010BFFFC4103FFE1E00000D06014003F429509004E13FFD170010CAC086
:2005A000100B883A0100BEF4213C20040010BF00E17FFF171009883A0010CAC010BFFFC4DE
:2005A80000BFFE160005883AE037883ADFC00117DF000017DEC00204F800283ADEFFFE0436
:2005B000DFC00115DF000015D839883AD0A0091710000326D0A00917103EE83A00000106DF
:2005B800D0A0C704E037883ADFC00117DF000017DEC00204F800283ADEFFFD04DFC00215D0
:2005C000DF000115DF000104E13FFF1500116BC01007883A008016041880001500BFFFC430
:2005C800E037883ADFC00117DF000017DEC00204F800283ADEFFFF04DF000015D839883AE8
:2005D0000001883AE037883ADF000017DEC00104F800283ADEFFFC04DF000315DF000304C2
:2005D800E13FFD15E17FFE15E1BFFF15E0BFFF17E037883ADF000017DEC00104F800283A29
:2005E000DEFFFE04DFC00115DF000015D839883AD0A0091710000326D0A00917103EE83AD7
:2005E80000000106D0A0C704E037883ADFC00117DF000017DEC00204F800283ADEFFFA0452
:2005F000DFC00515DF000415DF000404E13FFE15E17FFF15E0BFFE1710000326E0BFFE170B
:2005F800108002171000061E001178001007883A008005841880001500BFFA840000130698
:20060000E0BFFE17E0FFFF17E0FFFC15E0BFFD15E0BFFD17E0FFFC1710C00115E0BFFC1753
:2006080010C00017E0BFFD1710C00015E0BFFC1710800017E0FFFD1710C00115E0BFFC176F
:20061000E0FFFD1710C000150005883AE037883ADFC00117DF000017DEC00204F800283AA7
:20061800DEFFFD04DFC00215DF000115DF0001040080007410889404E0BFFF150000060672
:20062000E0BFFF1710800017103EE83AE0BFFF1710BFFF04E0BFFF15E0FFFF1700800074CB
:200628001088950418BFF62E0001883AE037883ADFC00117DF000017DEC00204F800283A3F
:20063000DEFFFD04DFC00215DF000115DF0001040080007410889404E0BFFF15000006065A
:20063800E0BFFF1710800017103EE83AE0BFFF1710BFFF04E0BFFF15E0FFFF1700800074B3
:200640001088950418BFF62E0001883AE037883ADFC00117DF000017DEC00204F800283A27
:20064800DEFFFA04DFC00515DF000415DF000404E13FFE15E17FFF15E0BFFF17108000171C
:20065000E0BFFC15E13FFE170010418010800044E0BFFD1500000D06E0BFFC1710800217E1
:20065800E0FFFD17180D883AE17FFE171009883A0011F0801000021EE0BFFC1700000706E8
:20066000E0BFFC1710800017E0BFFC15E0FFFC17E0BFFF1718BFF01E0005883AE037883A45
:20066800DFC00117DF000017DEC00204F800283ADEFFFF04DF000015D839883A0001883A5D
:20067000E037883ADF000017DEC00104F800283ADEFFF904DFC00615DF000515DF00050429
:20067800E13FFC15E17FFD15E1BFFE15E1FFFF15E0800217D8800015E1FFFF17E1BFFE1787
:20068000E17FFD17E13FFC170011B800E037883ADFC00117DF000017DEC00204F800283A66
:20068800DEFFF904DF000615DF000604E13FFE15E17FFF15E0BFFF17E0BFFA150005303A1C
:20069000E0BFFB15E0FFFB1700BFFF841884703A1001703AE0BFFB17E0BFFC1500C0004402
:20069800E0BFFA171884983A1007883AD0A0CD171884B03AD0A0CD15D0A0CD17100170FA50
:2006A000E0BFFC17E0BFFD15E0BFFD171001703A0005883A0001883AE037883ADF00001710
:2006A800DEC00104F800283ADEFFF904DF000615DF000604E13FFE15E17FFF15E0BFFF171C
:2006B000E0BFFA150005303AE0BFFB15E0FFFB1700BFFF841884703A1001703AE0BFFB1779
:2006B800E0BFFC1500C00044E0BFFA171884983A0084303A1007883AD0A0CD171884703AEF
:2006C000D0A0CD15D0A0CD17100170FAE0BFFC17E0BFFD15E0BFFD171001703A0005883A61
:2006C8000001883AE037883ADF000017DEC00104F800283ADEFFFC04DF000315DF000304C9
:2006D000E13FFE15E17FFF15000530FAE0BFFD1500C00044E0BFFF171884983A1007883A83
:2006D800E0BFFD171884703A1004C03A10803FCCE037883ADF000017DEC00104F800283A94
:2006E000DEFFF504DFC00A15DF000915DF000904E13FFC15E17FFD15E1BFFE15E1FFFF1533
:2006E80000BFFA84E0BFF715E0BFFD17E0BFF815E0BFF817108008081000271E0005303A99
:2006F000E0BFFB15E0FFFB1700BFFF841884703A1001703AE0BFFB17E0BFFA1500800074B4
:2006F800108A2504E0FFF817180690FA10C5883AE0FFFE1710C0001500800074108A250462
:20070000E0FFF817180690FA10C5883A10800104E0FFFF1710C00015E0BFFE17100005264E
:20070800E0BFF817100B883AE13FFC170011A20000000406E0BFF817100B883AE13FFC1798
:200710000011AA80E0BFF715E0BFFA17E0BFF915E0BFF9171001703AE0BFF717E037883A96
:20071800DFC00117DF000017DEC00204F800283ADEFFFA04DF000515DF000504E13FFF1526
:200720000005303AE0BFFC15E0FFFC1700BFFF841884703A1001703AE0BFFC17E0BFFB1504
:20072800E0BFFF17E0BFFD15E0BFFD1710800017E0FFFD1718C0011710C00115E0BFFD1775
:2007300010800117E0FFFD1718C0001710C00015E0BFFD17E0FFFD1710C00115E0BFFD17FB
:20073800E0FFFD1710C00015E0BFFB17E0BFFE15E0BFFE171001703A0001883AE037883A5B
:20074000DF000017DEC00104F800283ADEFFFB04DFC00415DF000315DF000304D0A00B17A3
:20074800E0BFFD15D0A0CF1710800044D0A0CF1500002E06E0BFFD1710800017E0BFFE1522
:20075000E0BFFD171080040310803FCC10000426D0A0CF171000021EE0BFFD171000040518
:20075800E0BFFD1710800217D0E0CF1718801D36E0BFFD171080040310803FCC1000191E78
:20076000E0BFFD1710800317E0FFFD1718C005171809883A103EE83AE0BFFF15E0BFFF177A
:200768001000031EE13FFD170011C70000000D06E0BFFD1710C00217E0BFFF171887883A6F
:20077000E0BFFD1710C00215E0BFFD1710C00217D0A0CF171880032EE0BFFD1700C000445D
:2007780010C00405E0BFFE17E0BFFD15E0FFFD17D0A00B0418BFCF1E0001883A0001883A67
:20078000E037883ADFC00117DF000017DEC00204F800283ADEFFFF04DF000015D839883A2E
:20078800000170FA0001883AE037883ADF000017DEC00104F800283ADEFFFE04DF00011583
:20079000DF000104E13FFF15E0BFFF1710BFFE8410C0042818001A1E100690BA008000748B
:2007980010879C041885883A108000171000683A00011EB000011EB000011EC000011EC0F6
:2007A00000011EC000011EB000011EB800011EC000011EB000011EB000011EC000011EB089
:2007A80000011EB800011EC000011EC000011EB000800044000003060005883A0000010632
:2007B0000005883AE037883ADF000017DEC00104F800283A200B883A000F883A000D883A09
:2007B8000009883A0011F381DEFFFE04000B883ADC000015DFC001152021883A0012090061
:2007C0008009883A00122200218D883A218008262080000328C0000310C0022610C5C83AFE
:2007C800F800283A2100004429400044003FF7060005883AF800283A008000741089540463
:2007D00010C00017DEFFF904DC0000151C000C17DD400515DD000415DCC00315DC800215C4
:2007D800DC400115DFC00615202B883A2823883A3027883A3825883A1029883A8000021E28
:2007E0001C000D041C000C158080011700C007C41880110E00800034108000041000021EBD
:2007E80000BFFFC40000310601002304000000001021883A103FFA2610000115A080001751
:2007F00010C00C1780C0001514000C1580002215A8001D2600000606A8001B26808022179C
:2007F8001000091E0080003410800004103FEC260100420400000000103FE92610004015F7
:20080000100041158080221581400117010000442947883A18C7883A10C7883A1CC00015C0
:200808002148983A11404017290AB03A114040151C80201500C00084A8C0031E10C0411764
:200810001908B03A110041158080011710C00044108000841085883A1085883A80C0011512
:2008180080A1883A844000150005883ADFC00617DD400517DD000417DCC00317DC80021725
:20082000DC400117DC000017DEC00704F800283ADEFFF504DD00051505000074DC800315D4
:20082800DFC00A15DF000915DDC00815DD800715DD400615DCC00415DC400215DC000115B0
:20083000D90000152825883AA5095404A44000178CC00C178C400C04980045269C000117A8
:200838000090003410BFFFC49D40221785BFFFC480A1883A8421883A8421883AAC2F883ADF
:20084000840002049C21883AB000271690000726A800041EB5BFFFC4BDFFFF04843FFF045F
:20084800003FF906B9002017913FFA1E9900011782000017213FFFC4B100021E9D80011509
:200850000000010680000015403FF2269F000117A8000526008000441592983AA94040174E
:20085800494A703A2800021E403EE83A00000906A90041174908703A2000041EB9400017FE
:20086000D9000017403EE83A00000206B9000017403EE83A99000117E13FCC1E8900001715
:20086800993FDC26003FC906008000341080000410000F2699400117990000172800091E0B
:200870002000082689000015A8000226A809883A000000009809883A000000008CC0001773
:20087800003FBD069823883A2027883A003FBA06DFC00A17DF000917DDC00817DD800717E3
:20088000DD400617DD000517DCC00417DC800317DC400217DC000117DEC00B04F800283AC8
:20088800DEFFFD04DF000215DF000204E13FFF150001883AE0BFFF17E0BFFE15E0BFFE1785
:2008900010000226002AF07000000106002AF0B0003FFF066C6C65487266206F4E206D6F3B
:2008980020736F69002149497665642F6364612F0000315F00007525204B4F0A00006325E7
:2008A0000000000A7665642F6364612F0000315F7665642F6C756E2F0000006C0000000081
:2008A800000000000000000000000000000000000000000000000000000000000000000030
:2008B000000000000000000000000000000000000000000000000000000000000000000028
:2008B800000000000000000000000000000000000000000000000000000000000000000020
:2008C000000000000000000000000000000000000000000000000000000000000000000018
:2008C800000000000000000000000000000000000000000000000000000000000000000010
:2008D000000000000000000000000000000000000000000000000000000000000000000008
:2008D800000000000000000000000000000000000000000000000000000000000000000000
:2008E0000000000000000000000000000000000000000000000000000000000000000000F8
:2008E8000000000000000000000000000000000000000000000000000000000000000000F0
:2008F0000000000000000000000000000000000000000000000000000000000000000000E8
:2008F8000000000000000000000000000000000000000000000000000000000000000000E0
:200900000000000000000000000000000000000000000000000000000000000000000000D7
:200908000000000000000000000000000000000000000000000000000000000000000000CF
:200910000000000000000000000000000000000000000000000000000000000000000000C7
:200918000000000000000000000000000000000000000000000000000000000000000000BF
:200920000000000000000000000000000000000000000000000000000000000000000000B7
:200928000000000000000000000000000000000000000000000000000000000000000000AF
:200930000000000000000000000000000000000000000000000000000000000000000000A7
:2009380000000000000000000000000000000000000000000000000000000000000000009F
:20094000000000000000000000000000000000000000000000000000000000000000000097
:2009480000000000000000000000000000000000000000000000000000000000000000008F
:20095000000000000000000000000000000000000000000000000000000000000000000087
:2009580000000000000000000000000000000000000000000000000000000000000000007F
:2009600000000000000000000001235C000123640001236C000000000000000000000000DF
:2009680000000000000000000000000000000000000000000000000000000000000000006F
:20097000000000000000000000000000000000000000000000000000000000000000000067
:2009780000000000000000000000000000000000000000000000000000000000000000005F
:20098000000000000000000000000000000000000000000000000000000000000000000057
:2009880000000000000000000000000000000000000000000000000000000000000000004F
:200990000000000000000004000000000001000A000000000002000A00000000000000002C
:20099800000000000000000000000000000122840000000000000000000000000000000098
:2009A000000000000000000000000000000210000001256800012568000122900000000056
:2009A800000000000000000000011754000000000000000000000000000123A800000000F7
:2009B00000000000000123A80000000000000000000123A80000000000000000000000008F
:2009B80000000000000000000000000000000000000000000000000000000000000000001F
:2009C000000000000000000000000000000000000000000000000000000000000000000017
:2009C80000000000000000000000000000000000000000000000000000000000000000000F
:2009D000000000000000000000000000000000000000000000000000000000000000000007
:2009D8000000000000000000000000000000000000000000000000000000000000000000FF
:2009E0000000000000000000000000000000000000000000000000000000000000000000F7
:2009E8000000000000000000000000000000000000000000000000000000000000000000EF
:2009F0000000000000000000000000000000000000000000000000000000000000000000E7
:2009F8000000000000000000000000000000000000000000000000000000000000000000DF
:200A00000000000000000000000000000000000000000000000000000000000000000000D6
:200A08000000000000000000000000000000000000000000000000000001229C0001229C50
:200A1000000211D8000210C00001256000012560000123A8000123A8FFFFFFFF0000000069
:200A1800FFFFFFFF0001257C0001257C00000000000000000000000000000000000000007E
:200A20000000000000000000000000000000000000000000000000000000000000000000B6
:200A28000000000000000000000000000000000000000000000000000000000000000000AE
:200A30000000000000000000000000000000000000000000000000000000000000000000A6
:200A380000000000000000000000000000000000000000000000000000000000000000009E
:00000001FF
